:020000040800F2
:1000000000001024152400086D2200086F2200084B
:100010007122000873220008752200080000000009
:10002000000000000000000000000000772200082F
:1000300079220008000000007B2200087D220008D1
:10004000652400086524000865240008652400086C
:10005000652400086524000865240008652400085C
:10006000652400086524000865240008652400084C
:10007000652400086524000865240008652400083C
:10008000652400086524000865240008652400082C
:10009000652400086524000865240008652400081C
:1000A000652400086524000865240008652400080C
:1000B00085220008652400086524000865240008DE
:1000C00065240008652400086524000865240008EC
:1000D00065240008652400086524000865240008DC
:1000E00065240008652400086524000865240008CC
:1000F00065240008652400086524000865240008BC
:1001000065240008652400086524000865240008AB
:10011000652400086524000865240008652400089B
:10012000652400086524000865240008652400088B
:10013000652400080000000000000000652400089D
:10014000652400086524000865240008652400086B
:10015000652400086524000865240008652400085B
:10016000652400086524000865240008652400084B
:10017000652400086524000865240008652400083B
:10018000652400086524000865240008652400082B
:10019000652400086524000865240008652400081B
:1001A00095220008A522000865240008652400089F
:1001B00065240008652400086524000865240008FB
:1001C000652400086524000800000000000000000D
:1001D000000000000000000065240008000000008E
:1001E000000000000000000000000000000000000F
:1001F00000000000000000006524000865240008DD
:10020000652400086524000800000000652400083B
:10021000652400086524000865240008652400089A
:1002200065240008B52200086524000800000000CD
:10023000652400086524000800000000652400080B
:10024000652400086524000865240008652400086A
:10025000652400086524000865240008652400085A
:10026000652400086524000865240008652400084A
:1002700065240008652400086524000800000000CB
:1002800065240008652400080000000065240008BB
:1002900000000000652400086524000865240008AB
:0C02A0006524000865240008652400089F
:1002B00010B5054C237833B9044B13B10448AFF3A0
:1002C00000800123237010BD4C04002400000000B6
:1002D0000C71000808B5034B1BB103490348AFF389
:1002E000008008BD00000000500400240C710008CC
:1002F00081F0004102E000BF83F0004330B54FEAD7
:1003000041044FEA430594EA050F08BF90EA020F43
:100310001FBF54EA000C55EA020C7FEA645C7FEAD6
:10032000655C00F0E2804FEA5454D4EB5555B8BFF9
:100330006D420CDD2C4480EA020281EA030382EA6A
:10034000000083EA010180EA020281EA0303362DFC
:1003500088BF30BD11F0004F4FEA01314FF4801CCF
:100360004CEA113102D0404261EB410113F0004FE1
:100370004FEA03334CEA133302D0524263EB430398
:1003800094EA050F00F0A780A4F10104D5F1200E36
:100390000DDB02FA0EFC22FA05F2801841F1000191
:1003A00003FA0EF2801843FA05F359410EE0A5F165
:1003B00020050EF1200E012A03FA0EFC28BF4CF096
:1003C000020C43FA05F3C01851EBE37101F000454C
:1003D00007D54FF0000EDCF1000C7EEB00006EEB59
:1003E0000101B1F5801F1BD3B1F5001F0CD34908E3
:1003F0005FEA30004FEA3C0C04F101044FEA44523A
:1004000012F5800F80F09A80BCF1004F08BF5FEAC0
:10041000500C50F1000041EB045141EA050130BDA0
:100420005FEA4C0C404141EB0101013C28BFB1F5B2
:10043000801FE9D291F0000F04BF01460020B1FAFD
:1004400081F308BF2033A3F10B03B3F120020CDAD0
:100450000C3208DD02F1140CC2F10C0201FA0CF0AE
:1004600021FA02F10CE002F11402D8BFC2F1200C13
:1004700001FA02F120FA0CFCDCBF41EA0C019040C9
:10048000E41AA2BF01EB0451294330BD6FEA040412
:100490001F3C1CDA0C340EDC04F11404C4F12002FD
:1004A00020FA04F001FA02F340EA030021FA04F30F
:1004B00045EA030130BDC4F10C04C4F1200220FA66
:1004C00002F001FA04F340EA0300294630BD21FAA4
:1004D00004F0294630BD94F0000F83F4801306BF6A
:1004E00081F480110134013D4EE77FEA645C18BF5E
:1004F0007FEA655C29D094EA050F08BF90EA020FF5
:1005000005D054EA000C04BF1946104630BD91EAEC
:10051000030F1EBF0021002030BD5FEA545C05D1EF
:100520004000494128BF41F0004130BD14F580042E
:100530003CBF01F5801130BD01F0004545F0FE41A2
:1005400041F470014FF0000030BD7FEA645C1ABFD7
:10055000194610467FEA655C1CBF0B46024650EA0E
:10056000013406BF52EA033591EA030F41F400213A
:1005700030BD00BF90F0000F04BF0021704730B5C0
:100580004FF4806404F132044FF000054FF0000195
:1005900050E700BF90F0000F04BF0021704730B556
:1005A0004FF4806404F1320410F0004548BF40422B
:1005B0004FF000013EE700BF42004FEAE2014FEA80
:1005C00031014FEA02701FBF12F07F4393F07F4F5B
:1005D00081F06051704732F07F4208BF704793F05E
:1005E0007F4F04BF41F40021704730B54FF4607471
:1005F00001F0004521F000411CE700BF50EA010274
:1006000008BF704730B54FF000050AE050EA01021C
:1006100008BF704730B511F0004502D5404261EB8C
:1006200041014FF4806404F132045FEA915C3FF4CD
:10063000D8AE4FF003025FEADC0C18BF03325FEA6A
:10064000DC0C18BF033202EBDC02C2F1200300FA1B
:1006500003FC20FA02F001FA03FE40EA0E0021FA40
:1006600002F11444BDE600BF70B54FF0FF0C4CF42E
:10067000E06C1CEA11541DBF1CEA135594EA0C0FE0
:1006800095EA0C0F00F0DEF82C4481EA030621EA1B
:100690004C5123EA4C5350EA013518BF52EA033556
:1006A00041F4801143F4801338D0A0FB02CE4FF008
:1006B0000005E1FB02E506F00042E0FB03E54FF038
:1006C0000006E1FB03569CF0000F18BF4EF0010E30
:1006D000A4F1FF04B6F5007F64F5407404D25FEA2C
:1006E0004E0E6D4146EB060642EAC62141EA5551DF
:1006F0004FEAC52040EA5E504FEACE2EB4F1FD0C21
:1007000088BFBCF5E06F1ED8BEF1004F08BF5FEA9E
:10071000500E50F1000041EB045170BD06F0004650
:1007200046EA010140EA020081EA0301B4EB5C04FD
:10073000C2BFD4EB0C0541EA045170BD41F48011F5
:100740004FF0000E013C00F3AB8014F1360FDEBF1A
:10075000002001F0004170BDC4F10004203C35DAF6
:100760000C341BDC04F11404C4F1200500FA05F379
:1007700020FA04F001FA05F240EA020001F000421A
:1007800021F0004110EBD37021FA04F642EB060190
:100790005EEA430E08BF20EAD37070BDC4F10C04BA
:1007A000C4F1200500FA04F320FA05F001FA04F27E
:1007B00040EA020001F0004110EBD37041F100016A
:1007C0005EEA430E08BF20EAD37070BDC4F1200575
:1007D00000FA05F24EEA020E20FA04F301FA05F2DD
:1007E00043EA020321FA04F001F0004121FA04F285
:1007F00020EA020000EBD3705EEA430E08BF20EA55
:10080000D37070BD94F0000F0FD101F0004640008E
:1008100041EB010111F4801F08BF013CF7D041EA10
:10082000060195F0000F18BF704703F00046520014
:1008300043EB030313F4801F08BF013DF7D043EAE5
:100840000603704794EA0C0F0CEA135518BF95EA9B
:100850000C0F0CD050EA410618BF52EA4306D1D122
:1008600081EA030101F000414FF0000070BD50EA41
:10087000410606BF1046194652EA430619D094EACB
:100880000C0F02D150EA013613D195EA0C0F05D1B5
:1008900052EA03361CBF104619460AD181EA030109
:1008A00001F0004141F0FE4141F470014FF00000C1
:1008B00070BD41F0FE4141F4780170BD70B54FF05C
:1008C000FF0C4CF4E06C1CEA11541DBF1CEA1355DC
:1008D00094EA0C0F95EA0C0F00F0A7F8A4EB0504BE
:1008E00081EA030E52EA03354FEA013100F08880B5
:1008F0004FEA03334FF0805545EA131343EA12637E
:100900004FEA022245EA111545EA10654FEA002632
:100910000EF000419D4208BF964244F1FD0404F5EB
:10092000407402D25B084FEA3202B61A65EB030547
:100930005B084FEA32024FF480104FF4002CB6EB04
:10094000020E75EB030E22BFB61A754640EA0C0084
:100950005B084FEA3202B6EB020E75EB030E22BFC4
:10096000B61A754640EA5C005B084FEA3202B6EB05
:10097000020E75EB030E22BFB61A754640EA9C00C4
:100980005B084FEA3202B6EB020E75EB030E22BF94
:10099000B61A754640EADC0055EA060E18D04FEA52
:1009A000051545EA16754FEA06164FEAC30343EAF2
:1009B00052734FEAC2025FEA1C1CC0D111F4801FBF
:1009C0000BD141EA00014FF000004FF0004CB6E7B8
:1009D00011F4801F04BF01430020B4F1FD0C88BF57
:1009E000BCF5E06F3FF6AFAEB5EB030C04BFB6EB62
:1009F000020C5FEA500C50F1000041EB045170BD55
:100A00000EF0004E4EEA113114EB5C04C2BFD4EB81
:100A10000C0541EA045170BD41F480114FF0000E05
:100A2000013C90E645EA060E8DE60CEA135594EA81
:100A30000C0F08BF95EA0C0F3FF43BAF94EA0C0F84
:100A40000AD150EA01347FF434AF95EA0C0F7FF4F9
:100A500025AF104619462CE795EA0C0F06D152EA4D
:100A600003353FF4FDAE1046194622E750EA410631
:100A700018BF52EA43067FF4C5AE50EA41047FF442
:100A80000DAF52EA43057FF4EBAE12E74FEA4102A5
:100A900012F5001215D211D56FF47873B3EB6252D0
:100AA00012D94FEAC12343F0004343EA505311F0F7
:100AB000004F23FA02F018BF404270474FF0000089
:100AC000704750EA013005D111F0004008BF6FF0C7
:100AD000004070474FF00000704700BF4FEA4102EE
:100AE000B2F1E04324BFB3F5001CDCF1FE5C0DD98C
:100AF00001F0004C4FEAC0024CEA5070B2F1004FD6
:100B000040EB830008BF20F00100704711F0804FD8
:100B100021D113F13872BCBF01F00040704741F49D
:100B200080114FEA5252C2F11802C2F1200C10FAA1
:100B30000CF320FA02F018BF40F001004FEAC12385
:100B40004FEAD32303FA0CFC40EA0C0023FA02F329
:100B50004FEA4303CCE77FEA625307D150EA0133FF
:100B60001EBF4FF0FE4040F44000704701F00040CF
:100B700040F0FE4040F40000704700BF80F00040AD
:100B800002E000BF81F0004142001FBF5FEA410365
:100B900092EA030F7FEA226C7FEA236C6AD04FEA65
:100BA0001262D2EB1363C1BFD218414048404140AA
:100BB000B8BF5B42192B88BF704710F0004F40F45C
:100BC000000020F07F4018BF404211F0004F41F478
:100BD000000121F07F4118BF494292EA030F3FD044
:100BE000A2F1010241FA03FC10EB0C00C3F1200357
:100BF00001FA03F100F0004302D5494260EB4000E6
:100C0000B0F5000F13D3B0F1807F06D340084FEA50
:100C1000310102F10102FE2A51D2B1F1004F40EB45
:100C2000C25008BF20F0010040EA030070474900AD
:100C300040EB0000013A28BFB0F5000FEDD2B0FA4A
:100C400080FCACF1080CB2EB0C0200FA0CF0AABF6D
:100C500000EBC25052421843BCBFD040184370470B
:100C600092F0000F81F4000106BF80F40000013211
:100C7000013BB5E74FEA41037FEA226C18BF7FEAE8
:100C8000236C21D092EA030F04D092F0000F08BF2A
:100C90000846704790EA010F1CBF0020704712F011
:100CA0007F4F04D1400028BF40F00040704712F150
:100CB00000723CBF00F50000704700F0004343F0B5
:100CC000FE4040F4000070477FEA226216BF0846EB
:100CD0007FEA23630146420206BF5FEA412390EAAE
:100CE000010F40F4800070474FF0000304E000BFA4
:100CF00010F0004348BF40425FEA000C08BF704755
:100D000043F0964301464FF000001CE050EA010218
:100D100008BF70474FF000030AE000BF50EA01022D
:100D200008BF704711F0004302D5404261EB41011A
:100D30005FEA010C02BF84460146002043F0B6433F
:100D400008BFA3F18053A3F50003BCFA8CF2083A64
:100D5000A3EBC25310DB01FA02FC634400FA02FC6D
:100D6000C2F12002BCF1004F20FA02F243EB020074
:100D700008BF20F00100704702F1200201FA02FCD6
:100D8000C2F1200250EA4C0021FA02F243EB0200C9
:100D900008BF20EADC7070474FF0FF0C1CEAD0520D
:100DA0001EBF1CEAD15392EA0C0F93EA0C0F6FD0CE
:100DB0001A4480EA010C400218BF5FEA41211ED0AC
:100DC0004FF0006343EA501043EA5111A0FB013198
:100DD0000CF00040B1F5000F3EBF490041EAD3716D
:100DE0005B0040EA010062F17F02FD2A1DD8B3F1E9
:100DF000004F40EBC25008BF20F00100704790F058
:100E0000000F0CF0004C08BF49024CEA502040EAA9
:100E100051207F3AC2BFD2F1FF0340EAC25070476F
:100E200040F400004FF00003013A5DDC12F1190FAD
:100E3000DCBF00F000407047C2F10002410021FA1F
:100E400002F1C2F1200200FA02FC5FEA310040F137
:100E5000000053EA4C0308BF20EADC70704792F0B0
:100E6000000F00F0004C02BF400010F4000F013AE8
:100E7000F9D040EA0C0093F0000F01F0004C02BFE3
:100E8000490011F4000F013BF9D041EA0C018FE752
:100E90000CEAD15392EA0C0F18BF93EA0C0F0AD058
:100EA00030F0004C18BF31F0004CD8D180EA01007E
:100EB00000F00040704790F0000F17BF90F0004F17
:100EC000084691F0000F91F0004F14D092EA0C0FF9
:100ED00001D142020FD193EA0C0F03D14B0218BF8C
:100EE000084608D180EA010000F0004040F0FE40D2
:100EF00040F40000704740F0FE4040F4400070476E
:100F00004FF0FF0C1CEAD0521EBF1CEAD15392EAEC
:100F10000C0F93EA0C0F69D0A2EB030280EA010CDC
:100F200049024FEA402037D04FF0805343EA111175
:100F300043EA10130CF000408B4238BF5B0042F1D3
:100F40007D024FF4000C8B4224BF5B1A40EA0C0078
:100F5000B3EB510F24BFA3EB510340EA5C00B3EBAA
:100F6000910F24BFA3EB910340EA9C00B3EBD10F98
:100F700024BFA3EBD10340EADC001B0118BF5FEAEA
:100F80001C1CE0D1FD2A3FF650AF8B4240EBC25013
:100F900008BF20F0010070470CF0004C4CEA5020D4
:100FA0007F32C2BFD2F1FF0340EAC250704740F423
:100FB00000004FF00003013A37E792F0000F00F015
:100FC000004C02BF400010F4000F013AF9D040EA93
:100FD0000C0093F0000F01F0004C02BF490011F427
:100FE000000F013BF9D041EA0C0195E70CEAD1531F
:100FF00092EA0C0F08D142027FF47DAF93EA0C0F06
:101000007FF470AF084676E793EA0C0F04D14B02E9
:101010003FF44CAF08466EE730F0004C18BF31F09B
:10102000004CCAD130F000427FF45CAF31F0004395
:101030007FF43CAF5FE700BF4FF0FF3C06E000BF2E
:101040004FF0010C02E000BF4FF0010C4DF804CD51
:101050004FEA40024FEA41037FEA226C18BF7FEA61
:10106000236C11D001B052EA530C18BF90EA010F63
:1010700058BFB2EB030088BFC81738BF6FEAE170F2
:1010800018BF40F0010070477FEA226C02D15FEA8E
:10109000402C05D17FEA236CE4D15FEA412CE1D0FA
:1010A0005DF8040B704700BF844608466146FFE7C1
:1010B0000FB5FFF7C9FF002848BF10F1000F0FBDA3
:1010C0004DF808EDFFF7F4FF0CBF012000205DF89C
:1010D00008FB00BF4DF808EDFFF7EAFF34BF012021
:1010E00000205DF808FB00BF4DF808EDFFF7E0FFBA
:1010F00094BF012000205DF808FB00BF4DF808ED0B
:10110000FFF7D2FF94BF012000205DF808FB00BF6D
:101110004DF808EDFFF7C8FF34BF012000205DF84F
:1011200008FB00BF4FEA4002B2F1FE4F0FD34FF071
:101130009E03B3EB12620DD94FEA002343F0004344
:1011400010F0004F23FA02F018BF404270474FF0F2
:101150000000704712F1610F01D1420205D110F079
:10116000004008BF6FF0004070474FF0000070472C
:1011700042000ED2B2F1FE4F0BD34FF09E03B3EB01
:10118000126209D44FEA002343F0004323FA02F02D
:1011900070474FF00000704712F1610F01D1420219
:1011A00002D14FF0FF3070474FF00000704700BF92
:1011B0004FF0FF3C06E000BF4FF0010C02E000BF23
:1011C0004FF0010C4DF804CD4FEA410C7FEA6C5C06
:1011D0004FEA430C18BF7FEA6C5C1BD001B050EAA9
:1011E000410C0CBF52EA430C91EA030F02BF90EA94
:1011F000020F0020704710F1000F91EA030F58BF53
:10120000994208BF90422CBFD8176FEAE37040F0B4
:10121000010070474FEA410C7FEA6C5C02D150EA52
:10122000013C07D14FEA430C7FEA6C5CD6D152EA0D
:10123000033CD3D05DF8040B704700BF84461046D2
:1012400062468C461946634600E000BF01B5FFF7D1
:10125000B7FF002848BF10F1000F01BD4DF808EDA1
:10126000FFF7F4FF0CBF012000205DF808FB00BF72
:101270004DF808EDFFF7EAFF34BF012000205DF8CC
:1012800008FB00BF4DF808EDFFF7E0FF94BF012019
:1012900000205DF808FB00BF4DF808EDFFF7CEFF1A
:1012A00094BF012000205DF808FB00BF4DF808ED59
:1012B000FFF7C4FF34BF012000205DF808FB00BF2A
:1012C000F0B58DB000240794089409940A940B9407
:1012D000384BD3F8402142F01002C3F84021D3F834
:1012E000402102F010020192019AD3F8402142F00D
:1012F0008002C3F84021D3F8402102F0800202921C
:10130000029AD3F8402142F00402C3F84021D3F8F6
:10131000402102F004020392039AD3F8402142F0E4
:101320000102C3F84021D3F8402102F001020492E7
:10133000049AD3F8402142F00202C3F84021D3F8C6
:10134000402102F002020592059AD3F8402142F0B2
:101350000802C3F84021D3F8403103F00803069394
:10136000069B154D01224021284601F077FA134EC5
:1013700022461621304601F071FA22464FF4004110
:10138000284601F06BFA48F24003079301270897BB
:1013900009940A9407A9284601F04CF916230793EB
:1013A000089709940A9407A9304601F043F90DB053
:1013B000F0BD00BF0044025800000258000402586B
:1013C00008B50548054B036001F03EFD00B908BDB6
:1013D00000F078FDFBE700BF6804002400300052F5
:1013E00002680F4B9A4200D0704700B583B00D4B96
:1013F000D3F8342142F02002C3F83421D3F8343139
:1014000003F020030193019B00221146792001F093
:10141000B9F8792001F0ECF803B05DF804FB00BFE7
:10142000003000520044025800B58FB03422002131
:1014300001A804F0BDFB3248324B03600023436037
:101440008360C3604FF080530361302343610A23FC
:1014500083614823C3611223036240F22A2343625B
:1014600040F2353383624FF41C73C36240F23F3362
:101470000363FF2380F8343080F8353080F836304D
:1014800002F048F9002831D10523019340F2E3121C
:1014900002923022039240F2FB2204920122059232
:1014A000FF22069207924FF480620892099300226D
:1014B0000A924FF4F0730B934FF434730C93CD23D3
:1014C0008DF834308DF835308DF8363001A90C4860
:1014D00002F00CFA68B90C4B0A93002201A90848E3
:1014E00002F004FA40B90FB05DF804FB00F0EAFC2A
:1014F000CAE700F0E7FCEEE700F0E4FCF3E700BF2A
:10150000C0D60F2400100050C00400242DE9F04F75
:10151000BBB004460021359136913791389139910D
:10152000B82207A804F044FB2268884B9A4202D0F4
:101530003BB0BDE8F08F4FF00053079304231093A6
:101540001823119309231293022313930523149351
:101550004FF40063159341F25653179307A803F015
:10156000ADF8002840F0EE80794BD3F8442142F0EA
:101570000802C3F84421D3F8442102F00802019282
:10158000019AD3F8402142F01002C3F84021D3F869
:10159000402102F010020292029AD3F8402142F058
:1015A0000402C3F84021D3F8402102F00402039260
:1015B000039AD3F8402142F00102C3F84021D3F846
:1015C000402102F001020492049AD3F8402142F033
:1015D0000202C3F84021D3F8402102F00202059232
:1015E000059AD3F8402142F00802C3F84021D3F80D
:1015F000403103F008030693069B712335930225BF
:1016000036950024379438940E273997DFF844B183
:1016100035A9584601F00EF84FF00108CDF8D480F6
:1016200036953794032638960B233993DFF82891A3
:1016300035A9484600F0FEFFF223359336953794DE
:101640003896399735A9484600F0F4FF40F2064332
:1016500035933695379438943997DFF800A135A93A
:10166000504600F0E7FF4FF46A7335933695379490
:101670003896399735A9504600F0DCFFCDF8D48074
:101680003695379438964FF0090ACDF8E4A0DFF884
:10169000D08035A9404600F0CDFF4FF480533593FC
:1016A000369537943896399735A9584600F0C2FFD9
:1016B0004FF445433593369537943896399735A985
:1016C000404600F0B7FF4FF480633593369537946A
:1016D0003896399708F5006835A9404600F0AAFF0A
:1016E0004FF4007335933695379438960A2339931F
:1016F00035A9484600F09EFF04233593369537946C
:101700003896CDF8E4A035A9404600F093FF402379
:101710003593369537943894399735A9404600F07B
:1017200089FF22462146582000F02CFF582000F067
:101730005FFF22462146592000F024FF592000F087
:1017400057FFF5E600F0BEFB0EE700BF00100050AB
:1017500000440258001002580008025800000258C5
:101760000004025808B54FF47A738AB20146024861
:1017700003F0A0FD08BD00BFB4E20F2400B583B0A4
:1017800074238DF804308DF80500022101A8FFF7BD
:10179000E9FF03B05DF804FB80B500AF86468C46D8
:1017A00001310CF1080323F00703ADEB030D68468C
:1017B00076238DF80030002304E00EEB03020133A2
:1017C0001278C2546345F8DBFFF7CCFFBD4680BDFD
:1017D00010B5104C01220221204601F03FF80122F1
:1017E0000421204601F03AF80A2000F0A5FEA4F5F5
:1017F000806400224021204601F030F80A2000F0E9
:101800009BFE01224021204601F028F80A2000F02A
:1018100093FE10BD000402582DE9F04784B0DFF8B4
:1018200038A301224FF40041504601F017F800247C
:10183000019402948DF80C40C020FFF79FFF4FF0F9
:1018400001088DF8048018258DF80550022101A8A3
:10185000FFF7A2FF0A2000F06FFE2020FFF78EFFA7
:101860008DF80440414601A8FFF796FF3620FFF7A8
:1018700085FF8DF80440414601A8FFF78DFF3A200F
:10188000FFF77CFF70238DF80430414601A8FFF775
:1018900083FFB120FFF772FF4FF012098DF804901B
:1018A0001F238DF805301C238DF80630032101A875
:1018B000FFF772FFB220FFF761FF20238DF804309D
:1018C000C8238DF80530022101A8FFF765FFB3207A
:1018D000FFF754FF8DF80440414601A8FFF75CFF75
:1018E000B420FFF74BFF04278DF8047041460DEB41
:1018F0000700FFF751FFB520FFF740FF8DF8049078
:101900000F238DF805308DF806308DF807408DF8DF
:10191000084005210DEB0700FFF73EFFB620FFF75B
:101920002DFF03268DF804608DF8055002258DF8F3
:10193000065040238DF8073010238DF808303323EC
:101940008DF8093006210DEB0700FFF725FF0A206F
:1019500000F0F2FDC320FFF711FF07238DF80430DC
:1019600005218DF805108DF806708DF807708DF83B
:1019700008600DEB0700FFF70FFFC420FFF7FEFE26
:101980008DF8049034238DF8053013238DF806303C
:101990008DF807308DF808400C238DF809300621AA
:1019A0000DEB0700FFF7F8FE0A2000F0C5FDC5208B
:1019B000FFF7E4FE76238DF8043041460DEB070077
:1019C000FFF7EAFE0A2000F0B7FDC620FFF7D6FEBB
:1019D00023238DF8043050238DF805308DF8064010
:1019E00031460DEB0700FFF7D7FE0A2000F0A4FDFB
:1019F000C720FFF7C3FE8DF80440FF238DF80530A4
:101A000029460DEB0700FFF7C7FED020FFF7B6FE13
:101A10008DF804408DF805704FF057088DF806805A
:101A20008DF807508DF808408DF809408DF80A5060
:101A30008DF80B408DF80C6009210DEB0700FFF7C6
:101A4000ABFED220FFF79AFE8DF804408DF80570AA
:101A50008DF806808DF807508DF808408DF8094004
:101A60008DF80A508DF80B408DF80C6009210DEBB4
:101A70000700FFF791FED420FFF780FE8DF80440A9
:101A80008DF805708DF806808DF807508DF80840A8
:101A90008DF809408DF80A508DF80B408DF80C60D8
:101AA00009210DEB0700FFF777FED120FFF766FE57
:101AB0008DF804408DF805708DF806808DF807507C
:101AC0008DF808408DF809408DF80A408DF80B40DC
:101AD0008DF80C6009210DEB0700FFF75DFED320A8
:101AE000FFF74CFE8DF804408DF805708DF80680E8
:101AF0008DF807508DF808408DF809408DF80A40A0
:101B00008DF80B408DF80C6009210DEB0700FFF7F5
:101B100043FED520FFF732FE8DF804408DF80570A6
:101B20008DF806808DF807508DF808408DF8094033
:101B30008DF80A408DF80B408DF80C6009210DEBF3
:101B40000700FFF729FE22464FF40041504600F0FF
:101B500085FE04B0BDE8F0870000025830B585B0BE
:101B6000144D01224FF40041284600F077FE002476
:101B7000019402948DF80C401120FFF7FFFD8DF8C1
:101B80000440012101A8FFF707FE642000F0D4FC07
:101B90002920FFF7F3FD8DF80440012101A8FFF78C
:101BA000FBFD22464FF40041284600F057FE05B0E9
:101BB00030BD00BF0000025808B5FEF7FDFC002252
:101BC000214BFEF77BFE0022204BFEF74DFD00224D
:101BD0001F4BFEF749FDFEF759FF034600280CDBBB
:101BE0001B124242C0B2D2B258BF5042052B26D877
:101BF000DFE803F0060E13171C2000F1FF03EFE7E8
:101C0000C2B20023FF2000EB022000EB034008BD1E
:101C1000C043C0B20023FF22F5E7C3B2FF22002079
:101C2000F1E7C043C2B2FF230020ECE7C0B2FF23BC
:101C30000022E8E7C043C3B20022FF20E3E700230D
:101C40001A461846DFE700BF00807640000070406B
:101C500000001840B1F5347F18DA00B500EB400001
:101C60004FF4B46303FB01F100EB010C084B03F8E4
:101C70000C204FEA122E00F1010C8C4403F80CE00A
:101C8000120C023001445A545DF804FB704700BF47
:101C9000C00400242DE9F84F8A4691461C4B03EB03
:101CA000C00B00272CE0C7F107000AEB400009EB4E
:101CB0004601002221442844FFF7CCFF0134012CC7
:101CC00013DCC6F1070348FA03F313F0010FEAD05F
:101CD000C7F107000AEB400009EB46016FF07F42B5
:101CE00021442844FFF7B6FFE8E70135012D01DC68
:101CF0000024E4E70136072E01DC0025F6E7013772
:101D0000072F03DC1BF807800026F4E7BDE8F88FF7
:101D1000B8D0010870B505461E4B83FB0023C417DD
:101D2000C4EB63131C4E86FB0312D817C0EBA20052
:101D300000EB800000221146A3EB4000FFF7AAFF52
:101D400086FB0530C4EBA00486FB0436E017C0EB2D
:101D5000A60000EB80000F220021A4EB4000FFF75B
:101D600099FF04EB84041E220021A5EB4400FFF739
:101D700091FF2D2200210A20FFF78CFF3C22002139
:101D80000B20FFF787FF4B2200210C20FFF782FF7B
:101D900070BD00BF1F85EB516766666610B5034CCA
:101DA0002068FFF7B7FF0023236010BD0CDD0F2470
:101DB0002DE9F8433B4C4FF07E512068FEF7E4FEDE
:101DC00020603949FFF7A4F908B1002222604FF0E2
:101DD000000947E009F1010417E0344B1A68A11922
:101DE000E819FFF737FF0134022CF6DD0135022D2B
:101DF00002DC6FF00104F7E708F10408B8F1C70F3F
:101E00002EDC4C46B9F1000FE4DB6410284B53F88C
:101E100024604046FEF76CFF054601463046FEF75B
:101E2000BBFF0646234B1868FEF762FF3146FEF7FC
:101E3000ABFEFFF777F907461F4B53F824102846EF
:101E4000FEF7AAFF04461D4B1868FEF751FF214616
:101E5000FEF79AFEFFF766F906466FF00105C6E742
:101E600009F10109B9F5347F15DA0E4C4FF07C51B8
:101E70002068FEF789FE20600B49FFF749F908B199
:101E800000222260074B1868FFF796FE074A106091
:101E90004FF06408B2E70A4A136801331360BDE8E3
:101EA000F88300BF10DD0F240080B34368D70F24F0
:101EB0006CD70F240800002414DD0F240C0000242C
:101EC0000CDD0F2408B501221021024800F0C6FCE9
:101ED00072B6FEE70004025800B59DB04C22002106
:101EE00009A803F065FE2022002101A803F060FE8E
:101EF000022001F045FD00230093254B9A6942F42E
:101F000040429A619B6903F440430093009B204B3D
:101F10009B6913F4005FFAD01E4A936A23F003030F
:101F200043F002039362032109914FF480330A9333
:101F300001220C9240230D930223129313931491C8
:101F4000462115911693179218930C231993002389
:101F50001A931B9309A801F03DFDA8B93F230193F3
:101F600003230293002303930493402305930693D2
:101F70004FF4806207920893072101A802F048F904
:101F800020B91DB05DF804FBFFF79CFFFFF79AFF37
:101F90000048025800440258F8B500241EE02046CC
:101FA000FEF7F8FA5CA3D3E90023FEF75DFB0022FD
:101FB0005B4BFEF783FC06460F4603F00BFFFEF774
:101FC0008DFD584B43F824003046394603F0B2FEED
:101FD000FEF784FD544B43F824000134B4F5B47F7C
:101FE000DDDB524B5B6913F4003F13D1BFF34F8F1E
:101FF000BFF36F8F4D4B0022C3F85022BFF34F8FBA
:10200000BFF36F8F5A6942F400325A61BFF34F8FAA
:10201000BFF36F8F454B5B6913F4803F27D1434B70
:102020000022C3F88420BFF34F8FD3F88040C4F35D
:102030004E3000E01846C4F3C90243F6E07303EAE9
:10204000401343EA82733949C1F860321346013ABA
:10205000002BF2D1431E0028ECD1BFF34F8F4B6908
:1020600043F480334B61BFF34F8FBFF36F8F00F0AA
:1020700023FAFFF731FFFFF723F900F065F800F0CE
:102080006DF9FFF79DF92A4803F0A6FA00224FF4F4
:102090000041284800F0E2FB00220421264800F01D
:1020A000DDFB642000F048FAFFF792FBFFF7B4FB7A
:1020B000FFF754FDFFF7B8F900250AE06FF07F4203
:1020C00021462846FFF7C6FD0134B4F5487FF5DB0D
:1020D0000135B5F5F07F01DA0024F6E7002512E0BE
:1020E000164A1168C1F5347105FB0343144A52F8CE
:1020F000232029442046FFF7ADFD0134114B1B6816
:10210000A342EDDC01350D4B1B68AB4201DD002421
:10211000F4E7FFF74DFEFCE7F1D4C853FB2109407B
:102120000080664014DD0F246CD70F2400ED00E022
:102130003CE30F2400000258000402580000002471
:10214000287100080400002408B51648164B0360E7
:102150004FF4800343604FF4003383600723C36070
:102160004FF0007303614FF0807343614FF00053F1
:1021700083614FF04053C361002303624362836273
:10218000C36243638363C363036443648364C3645C
:1021900003654365836502F0D9FF00B908BDFFF709
:1021A00091FEFBE7B4E20F240034014010B5B6B055
:1021B0000446002131913291339134913591B82206
:1021C00003A803F0F5FC22681C4B9A4201D036B0FC
:1021D00010BD4FF4005303934FF440331C9303A8F6
:1021E00002F06CFA38BB164BD3F8502142F400527F
:1021F000C3F85021D3F8502102F400520192019A01
:10220000D3F8402142F01002C3F84021D3F8403106
:1022100003F010030293029B44F60403319302235C
:1022200032930023339334930523359331A9054822
:1022300000F000FACBE7FFF745FED4E70034014099
:10224000004402580010025882B0074BD3F85421C2
:1022500042F00202C3F85421D3F8543103F00203D0
:102260000193019B02B0704700440258FEE7FEE76D
:10227000FEE7FEE7FEE770477047704708B500F0DD
:1022800049F908BD08B5024803F0F2F908BD00BFDE
:102290003CE30F2408B5024801F0BBFA08BD00BFBB
:1022A000C0D60F2408B5024801F0B3FA08BD00BF3C
:1022B000C0D60F2408B5024801F039F908BD00BFA7
:1022C000680400241E4B1B6803F00F03022B06D882
:1022D0001B4A136823F00F0343F003031360194BE9
:1022E0001A6842F001021A6000221A611968164A3F
:1022F0000A401A60124B1B6813F00C0F06D0104AEC
:10230000136823F00F0343F0030313600D4B002207
:102310009A61DA611A620D4999620D49D9620D49D3
:1023200019635A639963DA6319645A64196821F46A
:10233000802119601A66084B43F2D2021A60704776
:1023400000200052004402587FEDF6EA000202022B
:102350000000FF01800201010040005200B589B079
:102360000023049305930693079301930293039329
:1023700016484FF08042026042F20F724260836062
:1023800046F65F52C26003618023836103F0C0FAA6
:1023900090B94FF48053049304A90C4803F0F4FA65
:1023A00068B900230193039301A9084803F088FB4F
:1023B00040B909B05DF804FBFFF784FDE9E7FFF7DA
:1023C00081FDEEE7FFF77EFDF3E700BF3CE30F245E
:1023D0000368B3F1804F00D0704700B583B00C4B59
:1023E000D3F8482142F00102C3F84821D3F848311C
:1023F00003F001030193019B002211461C2000F011
:10240000C1F81C2000F0F4F803B05DF804FB00BF35
:1024100000440258DFF834D0FFF754FF0C480D4950
:102420000D4A002302E0D458C4500433C4188C422F
:10243000F9D30A4A0A4C002301E013600432A24295
:10244000FBD303F091FBFFF7A7FD704700001024BA
:10245000000000244C0400247CD501084C04002416
:1024600090E30F24FEE70000104B1B780BB901200E
:10247000704710B504464FF47A70B0FBF3F30C4A82
:102480001068B0FBF3F000F0C1F868B90F2C01D967
:1024900001200AE0002221464FF0FF3000F072F8E0
:1024A000044B1C60002000E0012010BD1800002437
:1024B000100000241C00002410B5032000F050F888
:1024C00001F09AFD0F498B69C3F303230E4AD35CD5
:1024D00003F01F03D8408B6903F00F03D35C03F0B4
:1024E0001F0320FA03F3094A1360094B18600F20F9
:1024F000FFF7BAFF10B10124204610BD0446FFF7D4
:10250000A3FEF9E70044025820D10108140000247A
:1025100010000024034B1B78034A11680B4413601E
:10252000704700BF1800002488E30F24014B18688F
:10253000704700BF88E30F2438B50446FFF7F6FF65
:102540000546B4F1FF3F02D0044B1B781C44FFF753
:10255000EDFF401BA042FAD338BD00BF1800002495
:102560000649CB6823F4E0631B041B0C000200F453
:10257000E0600343024A1A43CA60704700ED00E07E
:102580000000FA0500B5174BDB68C3F30223C3F163
:10259000070CBCF1040F28BF4FF0040C03F1040E2C
:1025A000BEF1060F14D9033B4FF0FF3E0EFA0CFCB0
:1025B00021EA0C0199400EFA03F322EA03031943BE
:1025C000002807DB0901C9B2074B19545DF804FB69
:1025D0000023E9E700F00F000901C9B2034B1954C9
:1025E000F4E700BF00ED00E000E400E014ED00E0DF
:1025F000002807DB00F01F02400901239340024A34
:1026000042F82030704700BF00E100E00138B0F12F
:10261000807F0BD24FF0E0235861054AF02182F809
:1026200023100020986107221A617047012070472B
:1026300000ED00E070B582B000236EE085685E00BA
:102640000324B44025EA0405CC68B4402C438460DC
:10265000446824EA0C0C4C68C4F300149C4044EA1F
:102660000C0444606CE0DD08083550F8256003F088
:1026700007044FEA840C0F2404FA0CF426EA040E33
:102680000C6904FA0CF444EA0E0440F825406FE0AB
:10269000092400E0002404FA0EF42C430CF1020C8F
:1026A0006B4D45F82C404FF0B0442568D44325EAE3
:1026B0000206D1F804C01CF4801F01D042EA0506CE
:1026C0004FF0B0452E606D6804EA0506D1F804C0ED
:1026D0001CF4001F01D042EA05064FF0B0456E60C1
:1026E000D5F8845004EA0506D1F804C01CF4003F74
:1026F00001D042EA05064FF0B045C5F88460D5F830
:1027000080502C404E6816F4803F01D042EA050408
:102710004FF0B042C2F8804001330A6832FA03F445
:1027200000F093804FF0010C0CFA03FC1CEA02024B
:10273000F2D04C6804F00304013C012C7FF67EAF1C
:102740004C6804F00304032C0CD0C4685D004FF007
:10275000030C0CFA05FC24EA0C0C8C68AC4044EA2F
:102760000C04C4604C6804F00304022C3FF47BAFFB
:1027700004684FEA430E4FF0030C0CFA0EFC24EAF7
:102780000C0C4C6804F0030404FA0EF444EA0C0444
:1027900004604C6814F4403FBED02E4CD4F8545121
:1027A00045F00205C4F85451D4F8544104F0020431
:1027B0000194019C4FEA930C0CF10205244C54F84F
:1027C000255003F003044FEA840E0F2404FA0EF49C
:1027D00025EA0405204CA0423FF45CAF04F5806478
:1027E000A04222D004F58064A04220D004F5806489
:1027F000A0421ED004F58064A0421CD004F5806481
:10280000A0421AD004F58064A04218D004F5806478
:10281000A04216D004F58064A04214D004F5806470
:10282000A0423FF435AF0A2435E7012433E7022400
:1028300031E703242FE704242DE705242BE70624A2
:1028400029E7072427E7082425E702B070BD00BF69
:102850000004005800440258000002580AB1816187
:10286000704709048161704730B514461D464FF02A
:10287000000E72460BE05FFA8EFC0CF1010C01F8C1
:1028800002C00132013B002BF5D10EF1010EBEF169
:102890000F0F08D810F80E3002EB030CBCF5807F48
:1028A000F1D9012030BD00238B542A6091F800C07B
:1028B0001A4611E044F8232001330132C85C604518
:1028C000F8D0BCF11F0F0BD8012000FA0CF0904299
:1028D00008D952000CF1010CC85C0028EED1E1E7E8
:1028E0000120DFE70120DDE770B5ADF5A26D0546FB
:1028F0000C4601AB02AA0DF20C41FFF7B5FF20BB5D
:1029000003460EE0A02202A951F8236002F128013B
:1029100004EB81014E600DF20C41C95C0139A154F8
:102920000133019A9A4210D9EA18127C002AE9D0A0
:10293000F02A0DD002F00F01120902EB820201EB26
:102940004202013AA12ADED901200DF5A26D70BD27
:10295000A122D8E730B5ADF2145D05460C460DF264
:102960000C5301AA0DF58161FFF77EFFE0B9034624
:10297000DDF80C259A4217D9EA18127C0B2A12D8D6
:1029800001A951F8231002F1020C04EB8C0CCCF8D5
:1029900004100DF5816111F803C00CF1FF3C04F83F
:1029A00002C00133E4E701200DF2145D30BD10B523
:1029B00090B00B46046804F5F861914206D004F526
:1029C000FC61914205D0012010B010BD04F5FB64FC
:1029D00001E004F5FF64ABB301A91846FFF7BAFFA5
:1029E0000028F1D16FF0F023236063600C2126E012
:1029F00001F13F036B4413F83C3C1B0203F470638A
:102A00004A1C0DF1400C0CEB820212F8382C1A43D0
:102A1000023901F140036B4413F83C3C1B0203F400
:102A2000706301F1020C0DF1400E0EEB8C0C1CF8E2
:102A300038CC43EA0C0343EA024344F8043D01293D
:102A4000D6D8C1E70020BFE710B5ADF54C7D0B46E9
:102A5000046804F5A061914207D004F5CC6191426D
:102A600006D001200DF54C7D10BD04F2446401E058
:102A700004F2A474002B3FD001A91846FFF734FFDD
:102A80000028EFD12346002204E06FF0F02143F844
:102A9000041B0132022AF8D9184A1A6002F1021204
:102AA0005A6002F102129A6002F10212DA60A22167
:102AB0001FE04B1E0DF1040C1CF803301B0203F445
:102AC000706301F127020CEB820212791A4302397A
:102AD0001CF801301B0203F4706301F1280E0CEBAB
:102AE0008E0C9CF804C043EA0C0343EA024344F80A
:102AF000043D0129DDD8B5E70020B3E7D00FD10FA1
:102B000010B5046804F55B74102213E0531E92495B
:102B100011F803C0931ECB5C1B0443EA0C63A2F1C3
:102B2000030C11F80CC043EA0C23043A895C0B43F4
:102B300044F80439032AE9D8036803F55E7C0C22C3
:102B400015E0531E84490B4493F810E0941E0C4486
:102B5000237C1B0443EA0E63D41E0C44247C43EA0A
:102B60000423043A1144097C0B434CF80439032A2A
:102B7000E7D8046804F56274102213E0531E774905
:102B800011F803C0931ECB5C1B0443EA0C63A2F153
:102B9000030C11F80CC043EA0C23043A895C0B4384
:102BA00044F80439032AE9D80368D3F82C246C4983
:102BB00011404FF6F9220A43C3F82C2403F5856E21
:102BC000A02218E0531E65490B441C7CA2F1020CA4
:102BD0008C449CF810301B0443EA0463A2F1030CFC
:102BE0008C449CF810C043EA0C23043A1144097C3D
:102BF0000B434EF80439032AE4D80268D2F82C3487
:102C00009BB243F04073C2F82C340468D4F83C24DF
:102C1000534B1340C4F83C3404F587640C2215E090
:102C2000531C504911F803C08B5C1B0443EA0C632E
:102C300002F1FF3C11F80CC043EA0C23A2F1020C94
:102C400011F80C100B4344F80439043A032AE7D86E
:102C50000268D2F83C349BB243F08073C2F83C3433
:102C60000468D4F848343E4A1A4040F60A33134305
:102C7000C4F8483404F24444082218E0531C39498B
:102C80000B4493F810C08B181B7C1B0443EA0C63A5
:102C900002F1FF3C8C449CF810C043EA0C23A2F1E3
:102CA000020C6144097C0B4344F80439043A032ABA
:102CB000E4D80268D2F848349BB243F00073C2F8FB
:102CC00048340468D4F85834254A1A4047F202734D
:102CD0001343C4F8583404F254440C2215E0531C36
:102CE000214911F803C08B5C1B0443EA0C6302F119
:102CF000FF3C11F80CC043EA0C23A2F1020C11F8BE
:102D00000C100B4344F80439043A032AE7D802684C
:102D1000D2F858349BB243F08073C2F85834036839
:102D200003F59F6CA02214E0531C0F490B44187C40
:102D30008B181B7C1B0443EA0063501E0844007C74
:102D400043EA0023901E0144097C0B434CF80439EC
:102D5000043A032AE8D810BDF4D20108E4D10108EE
:102D60000000FFFFD8D2010830D1010810B5044699
:102D7000FFF7C6FE226802F5A06212492046FFF75F
:102D800063FE034608B1184610BD226802F5CC6206
:102D90000D492046FFF758FE03460028F3D122686C
:102DA00002F5F86209492046FFF701FE03460028B4
:102DB000E9D1226802F5FC6205492046FFF7F7FDDC
:102DC0000346E0E7E4D1010830D10108F4D201085C
:102DD000D8D2010870B50546046850344FF0000E93
:102DE000F44625E00CF1640C0132032A1DD8D3000F
:102DF00020FA03F3DBB2012BF4D0642101FB03F3CF
:102E00000EEB02010F4E715CEE6B715CB3FBF1F3E4
:102E1000642B04D8C3F1C8030CEB530CE4E741F274
:102E20008831B1FBF3F39C44DEE70EF1040E043469
:102E3000BEF13C0F02D820680022D6E74FEA9C1072
:102E400070BD00BF50D30108002847D010B504461C
:102E500090F84D30002B39D0022384F84D30226891
:102E6000136B43F0010313632268136823F001031B
:102E700013602268136B23F07E0313632268136BC5
:102E800043F4005313632268136B43F480431363CA
:102E90002268936B43F060039363114BE363114B20
:102EA000236400236364A3642046FFF75FFF90B9A7
:102EB0002268536843F48073536000232362636283
:102EC000012284F84D202365636510BD80F84C30E5
:102ED000FEF786FAC0E701202065F6E7012070477B
:102EE00010D3010898D20108002918BF00285FD02C
:102EF00038B503460C4601684A6802F00302022A0C
:102F000006D04A6812F0030F2CD10022226001E0A3
:102F1000102222601A685268120CA2601A68D268E5
:102F2000120CE2602268302A18BF102A38D11968C2
:102F30000A694FEA121CC2F3031248694FEA101ED5
:102F40008969C1F3031110F0F00F0CBF01200020BC
:102F5000012A14BF002500F001055DB151B902221C
:102F600062601FE04A6802F00302032A22D1302285
:102F70002260CFE74CEA0E0C1CF00F0F03D111B901
:102F8000002262600EE0032A14BF002000F001005E
:102F900018B111B90122626004E00022626001E010
:102FA000002262601846FFF715FF2061002038BD3F
:102FB000012070470120FAE7436D03F00C030C2B4E
:102FC00006D0436D03F00C03082B10D0002070478F
:102FD00011F0010F03D0436D43F48053436511F0AA
:102FE000020FF3D0436D43F400534365EEE711F055
:102FF000010204D0436D43F480534365062211F06F
:10300000020F05D0436D43F40053436542F028029C
:1030100001680B6B23EA02030B63D7E77047704725
:103020007047704738B504460D46836A03B199B9B5
:1030300001212046FFF7C0FF0022636D13F4805387
:1030400037D1002A35D04FEA920CB5EB920F2ED92A
:10305000032A2FD81D464FE0026A934202D9026A22
:103060009A1AEAE7026A934201D00022E5E7016A70
:10307000FFF7D7FFA36A042B02D923F00303A3624F
:1030800000232362A26AD8E7216AA069425C08444F
:10309000417842EA0122817842EA0142C0782168FF
:1030A00042EA00620A64226A043222620133AB42BD
:1030B000EAD338BD6345FCD2206AA1690A5C0144A9
:1030C000487842EA0022887842EA0042C8782168BB
:1030D00042EA00620A64226A043222620133E9E7AA
:1030E000A069216A415C03F00300C00081400D43E8
:1030F000216A0131216201339A42F1D823681D64AB
:10310000D7E77047F8B50446C06A636A03EB8103EA
:10311000984246D2636A984242D9636AC01A8008CC
:103120000021814247D223685B6CE569626AAB5437
:10313000E569626A0132C3F30726AE54E569626A43
:103140000232C3F30746AE54E569626A03321B0ECE
:10315000AB54636A043363620131E2E723685B6C5A
:10316000626AE569AB54626A0132C3F3072CE56910
:1031700005F802C0626A0232C3F3074CE56905F83C
:1031800002C0626A03321B0EE569AB54636A043302
:10319000636201308842E1D3E26A636A9A4202D0F4
:1031A000F8BD0020F6E7626AE1692046FFF7A9FF53
:1031B00000236362F4E7E76A636A9F4206D0656AA8
:1031C000A7EB050C23685E6C002213E0626AE169DC
:1031D0002046FFF796FF00236362E1E702F0030356
:1031E000DB0026FA03F3E069616A4354636A013342
:1031F000636201326245F1D3626AE1692046FFF7FA
:1032000080FF00236362ED1B043509E0EB0026FA22
:1032100003F3E169626A8B54636A013363620135C7
:10322000032DF3D9BCE738B50446436D03F003031F
:10323000022B21D0636D13F4805F08D123685A6B91
:1032400012F0020F32D15B6B13F0040F33D1636DB8
:1032500013F4005F08D123685A6B12F0080F2FD1C6
:103260005B6B13F0100F30D12268536B03F03803FF
:10327000202B2FD0002038BD03685B6B13F0400F6C
:10328000D8D0051D2946FFF72FFE0023636129468C
:103290002046FFF7C3FE2268136B23F0400313633D
:1032A0002268936B43F040039363C3E708212046F1
:1032B000FFF7B8FECBE701212046FFF7B3FEC6E7D4
:1032C00008212046FFF71EFFCEE701212046FFF729
:1032D00019FFC9E7136823F001031360636D03F05E
:1032E0000C03082B1AD02268936B43F0600393639E
:1032F000636ACBB9636D626D02F48242626500223B
:1033000084F84C20012284F84D2003F00303022BA3
:1033100012D02046FFF783FE0120ACE72268136B32
:1033200023F07E031363DEE7626AE1692046FFF75C
:10333000E8FE00236362DDE72046FFF771FEEBE75E
:1033400038B50446102500E0013D65B3636D13F404
:10335000005FF9D123685A6B12F0100FF4D05B6C48
:10336000E169626A8B54E169626A0132C3F3072042
:103370008854E169626A0232C3F307408854E16904
:10338000626A03321B0E8B54636A04336362626A9F
:10339000E36A9A42D8D1626AE1692046FFF7B1FE3A
:1033A00000236362D0E7616D23685A6B12F0100F3F
:1033B00002D011F4005F17D11A6822F001021A60DE
:1033C000636A93B9636D626D02F4824262650022A2
:1033D00084F84C20012284F84D2003F00303022BD3
:1033E0000BD02046FFF71BFE38BD626AE16920461C
:1033F000FFF787FE00236362E4E72046FFF710FE35
:10340000F2E710B50446C26A436B1B685B69C3F3FD
:103410001003D31A4362436A9A421ED023685B6B3F
:1034200013F0100F2CD1636AF3B92268136823F0EC
:1034300001031360636D626D02F4824262650022D3
:1034400084F84C20012284F84D2003F00303022B62
:1034500012D02046FFF7E3FD16E0426AC169FFF78C
:1034600050FE00236362D9E7626AE1692046FFF7F4
:1034700048FE00236362D8E72046FFF7D1FD03E052
:10348000636D13F4005F00D010BD2046FFF758FFB6
:10349000FAE738B50446436D03F00303022B26D048
:1034A00023685A6B12F0200F20D0626D42F4004264
:1034B00062651A6822F001021A602268136B23F019
:1034C0007E0313632268936B43F060039363206B66
:1034D00090F83D30DBB2022B23D0606B90F83D308A
:1034E000DBB2022B20D02046FFF78BFF38BD0368EC
:1034F0005B6B13F0400FD3D0051D2946FFF7F4FC9A
:103500000023636129462046FFF788FD2268136B7C
:1035100023F0400313632268936B43F040039363EB
:10352000BEE700F017FAD8E700F014FADEE708B5B6
:1035300090F84D30033B012B00D908BD436D03F0DB
:103540000C03082B07D0436D03F00C030C2BF4D1B4
:10355000FFF79FFFF1E7FFF766FEEEE7F0B54D6876
:103560000468E368C3F30B431D444FEAC21C04EB39
:10357000C214D4F8883003F47043C4F888300B6860
:103580000468E668C6F30B463344013304EBC21407
:1035900043EA0543C4F88830CD680468E368C3F3A0
:1035A0000A031D4404EBC21EDEF88C3003F47043A2
:1035B000CEF88C308B680468E668C6F30A0E734454
:1035C000013304EBC21443EA0543C4F88C300368AA
:1035D00003EBC213D3F8944024F00704C3F89440DB
:1035E000036803EBC2130C69C3F8944091F831707F
:1035F00091F832608D69046804EBC21404F1840E02
:10360000D4F89C300024CEF8184091F8303043EACA
:10361000072343EA0643066806EBC21E43EA056336
:10362000CEF89C300EF1840E036803EBC213D3F87E
:10363000985025F0FF05C3F89850036803EBC213B8
:103640004D69C3F89850036803EBC213D3F8A06028
:103650002E4D3540C3F8A0500D6A036803EBC2132A
:10366000CE693543C3F8A050036803EBC213D3F807
:10367000AC50C3F8AC40036803EBC2124B6AC2F80B
:10368000AC300B696BB1012B39D0022B18BF042B66
:1036900037D0032B37D0072B01D0012502E00225BC
:1036A00000E0042502686244D2F8B04004F0E0244F
:1036B000C2F8B0408A6A05FB02F44B680A689B1A9C
:1036C00005FB03F307330268624443EA0443C2F88C
:1036D000B03003686344D3F8B4400D4A2240C3F8C5
:1036E000B42003686344CA6AC3F8B42003689C44E6
:1036F000DCF8843043F00103CCF88430F0BD0325BE
:10370000D0E70225CEE70225CCE700BFF8F8FFFF9F
:1037100000F8FFFF002875D010B5044690F8A130DE
:10372000002B6AD0022384F8A1302268936923F029
:103730007043936121688A696368A0680343E06805
:1037400003432069034313438B6121688A682E4B2E
:103750001A408A6020688268A169D4F814C041EADE
:103760000C410A4382602168CA681A40CA60206816
:10377000C268216AD4F81CC041EA0C410A43C26005
:1037800021680A691A400A6120680269A16AD4F8AE
:1037900024C041EA0C410A43026121684A6913408E
:1037A0004B61E06A21684B69226B42EA0042134395
:1037B0004B6194F8350094F836301B042168CA6ACE
:1037C00002F07F42CA622168CA6A43EA002394F881
:1037D000340003431343CB622268536B43F0060368
:1037E00053632268936943F0010393610020C4F896
:1037F000A400012384F8A13010BD80F8A030FDF7AB
:1038000085FE8FE70120704700F800F07047704791
:10381000704770B5044603689D6B5E6B15F0040F2E
:1038200002D016F0040F12D115F0020F02D016F0DC
:10383000020F21D115F0010F02D016F0010F32D185
:1038400015F0080F02D016F0080F3DD170BD5A6B6D
:1038500022F004025A6303680422DA63D0F8A43029
:1038600043F00103C0F8A43080F8A120002380F8C1
:10387000A030FFF7CBFFD7E72268536B23F002039A
:10388000536323680222DA63D4F8A4301343C4F8E4
:10389000A430042384F8A130002384F8A03020460B
:1038A000FFF7B4FFC6E72268536B23F001035363AD
:1038B00022680123D36384F8A130002384F8A03068
:1038C0002046FFF7A4FFBBE72268536B23F00803F1
:1038D000536323680822DA63012384F8A1300023AC
:1038E00084F8A0302046FFF793FFAFE7F8B590F8D3
:1038F000A030012B2CD004460D461646012780F837
:10390000A070022380F8A1304FF0340C0CFB020CA5
:103910000CF1380C8E46BEE80F00ACE80F00BEE894
:103920000F00ACE80F00BEE80F00ACE80F00DEF8B7
:103930000030CCF80030324629462046FFF70EFE14
:1039400023685F6284F8A170002084F8A000F8BDAD
:103950000220FCE790B190F83D30DBB2022B03D09F
:103960008023836601207047042380F83D3002687D
:10397000D36823F00103D360002070470120704713
:10398000134BDB6813F0040F07D1114BDB6803F016
:10399000070383421AD00120704710B50C4AD36840
:1039A00023F007031843D060FEF7C0FD0446084B20
:1039B0005B6813F4005F07D1FEF7B8FD001BB0F59C
:1039C0007A7FF4D9012000E0002010BD002070476C
:1039D00000480258002800F0F08238B50446036819
:1039E00013F0010F29D0A14A136903F03803926A3A
:1039F000102B19D0182B13D06368B3F5803F43D038
:103A0000002B58D1994B1A6822F480321A601A6838
:103A100022F480121A601A6822F480221A6038E0B8
:103A200002F00302022AE7D1904B1B6813F4003F17
:103A300003D06368002B00F0C282236813F0020FEA
:103A400000F0A280894A1369926A13F0380374D097
:103A5000182B6FD0E368002B00F0C38083490A68FD
:103A600022F0190213430B60FEF760FD05467F4B01
:103A70001B6813F0040F40F0AB80FEF757FD401BAE
:103A80000228F4D90320A1E2784A136843F4803372
:103A900013606368002B3ED0FEF748FD0546734B6C
:103AA0001B6813F4003FC8D1FEF740FD401B64289B
:103AB000F5D903208AE2B3F5A02F10D0B3F5A81FE3
:103AC0001BD06A4B1A6822F480321A601A6822F4FA
:103AD00080221A601A6822F480121A60D9E7634BB8
:103AE0001A6842F480221A601A6822F480121A605E
:103AF0001A6842F480321A60CBE75C4B1A6842F4D1
:103B000080221A601A6842F480121A601A6842F41D
:103B100080321A60BDE7FEF709FD0546534B1B686E
:103B200013F4003F89D0FEF701FD401B6428F5D94E
:103B300003204BE212F0030F8CD14C4B1B6813F0A7
:103B4000040F03D0E368002B00F03B82474A136860
:103B500023F01903E1680B431360FEF7E7FC054609
:103B6000424B1B6813F0040F06D1FEF7DFFC401B2D
:103B70000228F5D9032029E23C4A536823F0FE438A
:103B8000216943EA01635360236813F0100F51D099
:103B9000364A136903F03803926A082B39D0182B80
:103BA00033D0E369002B6CD0304A136843F08003B4
:103BB0001360FEF7BBFC05462C4B1B6813F4807F9B
:103BC00056D1FEF7B3FC401B0228F5D90320FDE1D6
:103BD000264A536823F0FE43216943EA0163536098
:103BE000D2E7224A136823F001031360FEF79EFC1C
:103BF00005461E4B1B6813F0040FC5D0FEF796FC5C
:103C0000401B0228F5D90320E0E102F00302012A5B
:103C1000C7D1164B1B6813F4807F03D0E369802B58
:103C200040F0D181114AD36823F07C53216A43EAE2
:103C30000163D360236813F0080F4AD06369002B37
:103C400033D00A4A536F43F001035367FEF76EFC0B
:103C50000546064B5B6F13F0020F3AD1FEF766FC88
:103C6000401B0228F5D90320B0E100BF00440258F0
:103C70008C4AD36823F07C53216A43EA0163D36002
:103C8000D8E7884A136823F080031360FEF74EFCE0
:103C90000546844B1B6813F4807FCBD0FEF746FCAF
:103CA000401B0228F5D9032090E17E4A536F23F090
:103CB00001035367FEF73AFC05467A4B5B6F13F03E
:103CC000020F06D0FEF732FC401B0228F5D9032074
:103CD0007CE1236813F0200F29D0A3699BB1714ABE
:103CE000136843F480531360FEF720FC05466D4BC8
:103CF0001B6813F4005F1AD1FEF718FC401B022862
:103D0000F5D9032062E1674A136823F480531360F6
:103D1000FEF70CFC0546634B1B6813F4005F06D0EE
:103D2000FEF704FC401B0228F5D903204EE123686E
:103D300013F0040F22D1636A002B00F04681594A28
:103D4000126902F03802182A00F00E81022B00F0EE
:103D50009480544A136823F080731360FEF7E6FBE7
:103D60000446504B1B6813F0007F00F0FB80FEF709
:103D7000DDFB001B0228F4D9032027E14A4A13681F
:103D800043F480731360FEF7D1FB0546464B1B6876
:103D900013F4807F06D1FEF7C9FB401B6428F5D9D8
:103DA000032013E1A368012B0ED033BB3D4B1A6FE8
:103DB00022F001021A671A6F22F080021A671A6F46
:103DC00022F004021A6704E0364A136F43F001033D
:103DD0001367A368002B3ED0FEF7A8FB0546314BC6
:103DE0001B6F13F0020FA6D1FEF7A0FB401B41F2A0
:103DF00088339842F3D90320E8E0052B0FD0852BB8
:103E00001BD0284B1A6F22F001021A671A6F22F09A
:103E100004021A671A6F22F080021A67D9E7214B51
:103E20001A6F42F004021A671A6F22F080021A67B2
:103E30001A6F42F001021A67CBE71A4B1A6F42F071
:103E400004021A671A6F42F080021A671A6F42F072
:103E500001021A67BDE7FEF769FB0546114B1B6FB0
:103E600013F0020F3FF467AFFEF760FB401B41F217
:103E700088339842F2D90320A8E00A4A136823F055
:103E800080731360FEF752FB0546064B1B6813F068
:103E9000007F0BD0FEF74AFB401B0228F5D9032018
:103EA00094E000BF00440258004802584F4B996A02
:103EB0004F4A0A40A16AE06A41EA00110A439A6245
:103EC000226B013AC2F30802616B0139490289B2DF
:103ED0000A43A16B0139090401F4FE010A43E16BB5
:103EE0000139090601F0FE410A431A63DA6A22F039
:103EF0000102DA62596B3F4A0A40A16C42EAC102F0
:103F00005A63DA6A22F00C02216C0A43DA62DA6A36
:103F100022F00202616C0A43DA62DA6A42F4803209
:103F2000DA62DA6A42F40032DA62DA6A42F4802251
:103F3000DA62DA6A42F00102DA621A6842F08072EA
:103F40001A60FEF7F3FA0446284B1B6813F0007F53
:103F500006D1FEF7EBFA001B0228F5D9032035E065
:103F6000002033E0002031E020498A6A086B012BF1
:103F70002DD002F00303A16A8B422AD1C2F30512AD
:103F8000E36A9A4227D1C0F30802236B013B9A42AD
:103F900023D1C0F34622636B013B9A421FD1C0F389
:103FA0000642A36B013B9A421BD1C0F30660E36B50
:103FB000013B984217D1002008E001207047012002
:103FC00004E0012002E0012000E0002038BD0120D3
:103FD000FCE70120FAE70120F8E70120F6E70120DD
:103FE000F4E70120F2E70120F0E700BF00440258A7
:103FF0000CFCFFFF0700FFFFF8B57E4B1B6903F0C9
:104000003803102B00F0F280182B10D013B17A4C2B
:104010002046F8BD774B1B6813F0200F00F0E880B6
:10402000744B1868C0F3C100744CC440F0E7714B86
:104030009D6A05F003059C6AC4F30514D86A00F074
:1040400001005B6BC3F3CC0303FB00F0FCF74CFEF9
:104050000646002CDCD0012D76D0022D00F0A48085
:104060000DB32046FCF740FE01466548FCF748FFCB
:104070000446604B186BC0F30800FCF735FE05469C
:104080004FF064513046FCF787FE01462846FCF7A6
:104090007BFD4FF07E51FCF777FD01462046FCF793
:1040A0007BFE044671E0534B1B6813F0200F29D0B0
:1040B000504F3B68C3F3C1035048D840FCF714FE8F
:1040C00005462046FCF710FE01462846FCF718FF7F
:1040D0000446386BC0F30800FCF706FE05464FF0B7
:1040E00064513046FCF758FE01462846FCF74CFD6B
:1040F0004FF07E51FCF748FD01462046FCF74CFE90
:10410000044642E02046FCF7EFFD01463D48FCF73F
:10411000F7FE0446374B186BC0F30800FCF7E4FDCC
:1041200005464FF064513046FCF736FE01462846FE
:10413000FCF72AFD4FF07E51FCF726FD0146204694
:10414000FCF72AFE044620E02046FCF7CDFD0146A0
:104150002B48FCF7D5FE0446264B186BC0F308002D
:10416000FCF7C2FD05464FF064513046FCF714FEE3
:1041700001462846FCF708FD4FF07E51FCF704FD90
:1041800001462046FCF708FE04461A4B1B6BC3F39E
:104190004623581CFCF7A8FD01462046FCF7B0FE5C
:1041A000FCF7E6FF044633E72046FCF79DFD014699
:1041B0001548FCF7A5FE04460E4B186BC0F308002B
:1041C000FCF792FD05464FF064513046FCF7E4FDE4
:1041D00001462846FCF7D8FC4FF07E51FCF7D4FC92
:1041E00001462046FCF7D8FD0446CEE7074C0FE712
:1041F000024C0DE70044025800093D000090D00336
:104200000024744A0024744C001BB74B00366E0126
:10421000002800F0328170B50D4604469B4B1B68A8
:1042200003F00F038B420BD2984A136823F00F035D
:104230000B431360136803F00F038B4240F01F81A0
:10424000236813F0040F0CD02269914B9B6903F093
:1042500070039A4205D98E498B6923F070031A4383
:104260008A61236813F0080F0CD06269884BDB6900
:1042700003F070039A4205D98549CB6923F0700396
:104280001A43CA61236813F0100F0CD0A269804B47
:10429000DB6903F4E0639A4205D97D49CB6923F4D5
:1042A000E0631A43CA61236813F0200F0CD0E2695F
:1042B000774B1B6A03F070039A4205D974490B6A65
:1042C00023F070031A430A62236813F0020F0CD024
:1042D000E2686F4B9B6903F00F039A4205D96C4962
:1042E0008B6923F00F031A438A61236813F0010FCF
:1042F00041D0674A936923F47063A1680B439361CB
:104300006368022B0AD0032B27D0012B2CD0604AE4
:10431000126812F0040F06D10120ADE0126812F409
:10432000003F00F0AE805A490A6922F007021343A9
:104330000B61FEF7FBF80646554B1B6903F038038B
:104340006268B3EBC20F16D0FEF7F0F8801B41F2A3
:1043500088339842F0D903208EE04D4A126812F05B
:10436000007FE0D1012087E0494A126812F4807F83
:10437000D9D1012080E0236813F0020F0CD0E2684D
:10438000434B9B6903F00F039A4205D240498B6966
:1043900023F00F031A438A613C4B1B6803F00F03A1
:1043A000AB420AD9394A136823F00F032B43136039
:1043B000136803F00F03AB4265D1236813F0040FB9
:1043C0000CD02269324B9B6903F070039A4205D2EC
:1043D0002F498B6923F070031A438A61236813F015
:1043E000080F0CD062692A4BDB6903F070039A4214
:1043F00005D22749CB6923F070031A43CA612368A9
:1044000013F0100F0CD0A269214BDB6903F4E063B9
:104410009A4205D21E49CB6923F4E0631A43CA616C
:10442000236813F0200F0CD0E269194B1B6A03F0CC
:1044300070039A4205D216490B6A23F070031A439F
:104440000A62FFF7D9FD12498B69C3F30323114AAE
:10445000D35C03F01F03D8408B6903F00F03D35CD8
:1044600003F01F0320FA03F30B4A13600B4B186091
:104470000B4B1868FDF7F8FF70BD01207047012055
:10448000FAE70120F8E70120F6E700BF002000521C
:104490000044025820D10108140000241000002418
:1044A0001C000024404B9B6A03F00303032B79D0CC
:1044B00070B505460E463C4A136823F080631360CE
:1044C000FEF734F80446384B1B6813F0006F06D033
:1044D000FEF72CF8031B022BF5D9032070BD324BDD
:1044E0009A6A22F47C32296842EA01329A626A6846
:1044F000013AC2F30802A9680139490289B20A43A4
:10450000E9680139090401F4FE010A432969013906
:10451000090601F0FE410A439A63DA6A22F0C002FA
:1045200069690A43DA62DA6A22F02002A9690A4359
:10453000DA62DA6A22F01002DA62D96B1B4A0A40A8
:10454000E96942EAC102DA63DA6A42F01002DA6229
:10455000C6B91A46DB6A43F40023D362124A1368D1
:1045600043F080631360FDF7E1FF04460E4B1B68C8
:1045700013F0006F14D1FDF7D9FF001B0228F5D905
:104580000320ABE7012E05D0074AD36A43F400139A
:10459000D362E3E7044AD36A43F48013D362DDE7CE
:1045A00000209BE701207047004402580700FFFFEE
:1045B000404B9B6A03F00303032B79D070B505468B
:1045C0000E463C4A136823F080531360FDF7AEFF9C
:1045D0000446384B1B6813F0005F06D0FDF7A6FFBA
:1045E000031B022BF5D9032070BD324B9A6A22F0CF
:1045F0007C72296842EA01529A626A68013AC2F3FF
:104600000802A9680139490289B20A43E9680139F7
:10461000090401F4FE010A4329690139090601F080
:10462000FE410A431A64DA6A22F4406269690A4365
:10463000DA62DA6A22F40072A9690A43DA62DA6A93
:1046400022F48072DA62596C1B4A0A40E96942EA34
:10465000C1025A64DA6A42F48072DA62C6B91A4652
:10466000DB6A43F48003D362124A136843F0805339
:104670001360FDF75BFF04460E4B1B6813F0005FF1
:1046800014D1FDF753FF001B0228F5D90320ABE737
:10469000012E05D0074AD36A43F08073D362E3E763
:1046A000044AD36A43F40003D362DDE700209BE7AA
:1046B00001207047004402580700FFFFF8B5044688
:1046C000036813F0006F30D0836EB3F5001F26D05F
:1046D0000ED8EBB1B3F5801F07D102210430FFF7EC
:1046E000E1FE054645B12E4621E0012635461EE095
:1046F000B3F5401F09D10025994A136D23F44013E7
:10470000A16E0B431365002611E0012635460EE02D
:10471000934AD36A43F40033D3620025ECE70221C5
:104720002430FFF745FF0546DCE7002635462368C1
:1047300013F4807F26D0636D042B1FD8DFE803F0CD
:10474000031117080800864AD36A43F40033D36282
:10475000BDB9834A136D23F00703616D0B431365E5
:1047600010E00021201DFFF79DFE0546F0E7002127
:1047700004F12400FFF71CFF0546E9E70126354652
:1047800000E02E46236813F4007F1DD0A36D802B1C
:1047900039D00BD88BB3402B05D10021201DFFF75A
:1047A00081FE054608E0012635460DE0B3F5807F21
:1047B00002D0B3F5A07F1BD165BB694A136D23F40A
:1047C000E073A16D0B431365236813F4806F35D03C
:1047D000E36DB3F5806F57D021D8002B4ED0B3F5E1
:1047E000007F19D10021201DFFF75CFE05461CE06B
:1047F000C02BE1D001263546E6E7594AD36A43F497
:104800000033D362D8E7002104F12400FFF7D0FE83
:104810000546D1E72E46D7E7012635460EE0B3F52B
:10482000006F02D0B3F5206F22D1002D33D14C4A56
:10483000136D23F46063E16D0B431365236813F07C
:10484000007F31D0A36C202B41D029D833B1102B5D
:1048500023D1434AD36A43F40033D362002D3CD1C1
:104860003F4AD36C23F03003A16C0B43D3641BE0AD
:10487000B3F5C06FD9D001263546DFE7384AD36A91
:1048800043F40033D362D0E7002104F12400FFF7A2
:104890008FFE0546C9E72E46D0E70126354603E0E0
:1048A000302BDBD001263546236813F4805F39D0E6
:1048B000236EB3F5005F2DD014D82BB3B3F5805F12
:1048C0000DD10021201DFFF7EDFD054610E002216E
:1048D000201DFFF7E7FD0546C0E72E46E4E7012669
:1048E00035461FE0B3F5405F02D0B3F5804F08D1E5
:1048F000BDB91B4A136D23F4E043216E0B431365CE
:1049000010E0012635460DE0154AD36A43F4003322
:10491000D362EDE7002104F12400FFF749FE0546CC
:10492000E6E72E46236813F4005F26D0636EB3F5E6
:10493000003F37D016D83BB1B3F5803F0DD10121F0
:10494000201DFFF7AFFD05469DBB054A136D23F4FF
:10495000E023616E0B4313650FE0012635460CE042
:1049600000440258B3F5802FEED0B3F5A02FEBD062
:10497000B3F5403FE8D001263546236813F4804F55
:1049800025D0D4F8AC30B3F1005F4CD016D8002B52
:104990003CD0B3F1805F0ED10121201DFFF782FDD5
:1049A000054633E0012104F12400FFF701FE05462E
:1049B000CAE72E46E1E70126354608E0B3F1A04FED
:1049C00024D01DD9B3F1C04F20D00126354623682D
:1049D00013F4004F09D0636FB3F1805F2CD0B3F1B3
:1049E000005F37D06BB301263546236813F0807F14
:1049F00045D0636C032B6DD8DFE803F0393466399A
:104A0000B3F1405F02D0B3F1804F09D195B98C4A20
:104A1000936D23F0E043D4F8AC100B439365D6E7D5
:104A200001263546D3E7012104F12400FFF7C0FD3C
:104A30000546EBE72E46CAE7814AD36A43F40033C2
:104A4000D3626DB97E4A136D23F04053616F0B43FF
:104A50001365CAE70121201DFFF724FD0546F0E795
:104A60002E46C2E7764AD36A43F40033D362A5BB2D
:104A7000734AD36C23F00303616C0B43D364236844
:104A800013F4800F2BD1236813F0010F00F0A380E3
:104A9000D4F88030282B00F29C80DFE803F0899A5C
:104AA0009A9A9A9A9A9A849A9A9A9A9A9A9A939A83
:104AB0009A9A9A9A9A9A899A9A9A9A9A9A9A899A78
:104AC0009A9A9A9A9A9A89000221201DFFF7EAFC85
:104AD0000546CCE701263546D1E72E46CFE7594AB1
:104AE000136843F480731360FDF720FD0746554BB0
:104AF0001B6813F4807F05D1FDF718FDC01B6428E7
:104B0000F5D90325002D4AD14D4B1B6FD4F8B020A9
:104B1000534013F4407F0CD0494B1A6F22F440727B
:104B2000196F41F480311967196F21F480311967C9
:104B30001A67D4F8B030B3F5807F15D08DBBD4F8A8
:104B4000B03003F44072B2F5407F1ED03C4A136986
:104B500023F47C5313613A490B6FD4F8B020C2F3AD
:104B60000B0213430B678EE7FDF7E0FC0746344B5F
:104B70001B6F13F0020FE1D1FDF7D8FCC01B41F20F
:104B800088339842F3D90325D8E72D48026922F4E7
:104B90007C522D4901EA131313430361DBE72E46D0
:104BA00071E72E466FE70121201DFFF77BFC0546CC
:104BB000EDB9234A536D23F03803D4F880100B432A
:104BC000536508E0012104F12400FFF7F1FC0546DC
:104BD000EEE701263546236813F0020F16D0E36F87
:104BE000052B27D8DFE803F00A051F0A0A0A2E461C
:104BF000F1E70121201DFFF755FC0546EDB9104AEC
:104C0000536D23F00703E16F0B435365236813F0E3
:104C1000040F29D0D4F89830052B4AD8DFE803F0E8
:104C20001B16421B1B1B012104F12400FFF7C0FCD3
:104C30000546E3E701263546E8E72E46E6E700BFEE
:104C40000044025800480258CFFFFF000121201DF8
:104C5000FFF728FC05467DBBA94A936D23F00703A7
:104C6000D4F898100B439365236813F0200F33D0CA
:104C7000D4F89430B3F1005F4CD022D83BB1B3F1FB
:104C8000805F1BD10021201DFFF70CFC0546002D85
:104C900047D19B4A536D23F0E043D4F894100B4363
:104CA000536519E0012104F12400FFF781FC05465A
:104CB000D1E701263546D7E72E46D5E7012635460A
:104CC0000AE0B3F1804FE2D0B3F1A04FDFD0B3F1EF
:104CD000405FDCD001263546236813F0400F30D00A
:104CE000D4F8A030B3F5006F4BD01FD83BB1B3F56B
:104CF000806F18D10021201DFFF7D4FB0546002D41
:104D000046D17F4A936D23F4E053D4F8A0100B43AF
:104D1000936516E0022104F12400FFF749FC0546E3
:104D2000B5E72E46D8E7012635460AE0B3F5805FA1
:104D3000E5D0B3F5A05FE2D0B3F5406FDFD0012638
:104D40003546236813F0800F32D0D4F8A430B3F581
:104D5000804F00F0A28020D83BB1B3F5005F19D19D
:104D60000021201DFFF79EFB0546002D40F09C8092
:104D7000634A936D23F46043D4F8A4100B43936506
:104D800016E0022104F12400FFF712FC0546B6E705
:104D90002E46D6E7012635460AE0B3F5004FE4D0AB
:104DA000B3F5204FE1D0B3F5C04FDED00126354634
:104DB000236813F0080F0CD0D4F88830B3F5805F67
:104DC00074D04F4A536D23F44053D4F888100B43EA
:104DD0005365236813F0100F0CD0D4F89C30B3F552
:104DE000807F6CD0464A936D23F44073D4F89C10B6
:104DF0000B439365236813F4002F0BD0D4F8A8302D
:104E0000B3F5803F73D0B3F5003F66D0002B5FD081
:104E100001263546236813F4802F0CD0D4F88C304B
:104E2000B3F5001F7DD0B3F5401F70D0B3F5801FE0
:104E300068D001263546236813F4803F08D0E36C20
:104E4000002B77D0B3F5803F00F0828001263546F5
:104E5000236813F0005F40F08380236813F4003F61
:104E600000F08B80D4F88430B3F5807F00F0C980E7
:104E700040F28080B3F5007F03D0B3F5407F40F06F
:104E8000BE80002D40F0C3801D4A536D23F4407353
:104E9000D4F884100B4353656FE0022104F1240021
:104EA000FFF786FB054660E72E4681E7022104F105
:104EB0002400FFF77DFB002883D0012681E7022133
:104EC00004F12400FFF774FB00288BD0012689E74A
:104ED0000021201DFFF7E6FA05467DB9084A936DCB
:104EE00023F44033D4F8A8100B43936592E70221D2
:104EF00004F12400FFF75CFB0546EEE72E4689E748
:104F000000440258474AD36A43F40033D3627DB960
:104F1000444A536D23F44013D4F88C100B4353656B
:104F200089E7012104F12400FFF742FB0546EEE783
:104F30002E4680E73B4AD36A43F40033D3626DB90F
:104F4000384AD36C23F48033E16C0B43D3647FE79E
:104F50000221201DFFF7A6FA0546F0E72E4677E767
:104F6000022104F12400FFF723FB00283FF475AF72
:104F7000012672E7002B84D00126236813F4801FDA
:104F800006D0284A136D23F00043A16F0B4313652D
:104F9000236813F4001F06D0224A136D23F0807398
:104FA000E16E0B431365236813F4006F06D01D4AAE
:104FB000936D23F00063216F0B439365236813F017
:104FC000804F09D0174B1A6922F400421A611A69FE
:104FD000D4F8B4100A431A612368002B19DB236844
:104FE00013F4000F07D00F4A536D23F44003D4F895
:104FF00090100B43536506B101263046F8BD0126DB
:10500000BBE7084AD36A43F40033D36239E72E463C
:10501000B3E7044AD36C23F04053216D0B43D364B0
:10502000DDE700BF0044025810B40268536991697B
:1050300041F00801916101688A6942F010028A61B9
:1050400001680A6822F001020A6001680C69284AB6
:1050500022400A6101688A6822F440428A6090F81E
:105060008120D2B2042A0DD013F0200F0AD0D0F83C
:10507000842042F08002C0F8842001688A6942F0EE
:1050800020028A6190F88120D2B2032A0DD013F059
:10509000400F0AD0D0F8842042F00402C0F88420E7
:1050A00001688A6942F040028A6113F4007F0AD0E5
:1050B000D0F8842042F00102C0F8842001688A6997
:1050C00042F400728A6113F4807F0AD0D0F88430F1
:1050D00043F00803C0F884300268936943F4807396
:1050E00093610023A0F86230A0F86A3010BC7047CA
:1050F00090FCFFFFC36B5B09C0680830C00803FB6E
:10510000000070472DE9F04107460E4615469846C7
:10511000069C00E0C4B13B685B6936EA03030CBF40
:105120004FF0010C4FF0000CAC450AD1FDF7FEF931
:10513000A0EB0800A042EDD3B4F1FF3FEAD003207A
:1051400000E00020BDE8F0810320FBE7002800F02C
:10515000A38070B50446002383620568524B534E0A
:105160009D4218BFB54214BF0126002607D0A3F503
:1051700074439D4203D0C3680F2B00F28F802046FA
:10518000FFF7B8FF2EB14A4B9D4202D0082800F22B
:105190008780454A454B9D4218BF954203D003F591
:1051A00080639D4201D110287CD894F88130002B77
:1051B00059D0022384F881302268136823F0010358
:1051C000136021688A6802F4F812A369B3F1806F52
:1051D0004FD0E369A16A0B431343E26B1343E168C9
:1051E00022680B439360636B626A1343A26B1343A1
:1051F000A26913432269134362691343226A13436A
:1052000062681343E26C1343A2681343A26C134316
:10521000A16D22680B43D36063686BB92268936801
:1052200023F4C05343F4006393602268936823F42B
:10523000C06343F4806393602268136D23F001031D
:105240001365636813F4800F06D02268D36823F0D7
:105250000043616D0B43D3600020C4F88400012338
:1052600084F8813070BD84F880302046FCF79EFFC2
:105270009FE76368B3F5800F06D0002BA9D1A36B1D
:10528000B3F1805FA5D102E0A06B0028F5D10B68D7
:1052900043F480530B609CE7012070470120E1E755
:1052A0000120DFE70120DDE7003001400038004049
:1052B000003C00402DE9F04782B01D46D0F8008048
:1052C00090F88030012B00F0538104468A469146C5
:1052D000012380F88030FDF729F9074694F88160B2
:1052E000F6B2012E32D1B9F1000F18BFBAF1000F9A
:1052F00034D0032384F881300023C4F88430C4F808
:105300005CA0A4F86090A4F862906366A4F868308A
:10531000A4F86A3063672367A368B3F5C02F21D070
:1053200023685968934A0A4049EA02025A6022688F
:10533000136843F0010313606368B3F5800F17D05F
:10534000E3680F2B23D8072B59D8B8E0002384F843
:1053500080300226304602B0BDE8F087002384F892
:105360008030F7E72268136843F400631360D7E7DF
:105370002268136843F400731360E1E7FDF7D6F881
:10538000C01BA84202D3B5F1FF3F19D1C5B1B4F893
:1053900062309BB2002B00F0CD8023685A6912F076
:1053A000020FEBD0E26D12681A62E36D0433E3651D
:1053B000B4F8622092B2013A92B2A4F86220E6E711
:1053C0002046FFF731FE002384F88030D4F8843083
:1053D00043F48073C4F88430012384F881300326B9
:1053E000B8E7E36D1B88A8F82030E36D0233E3656E
:1053F000B4F862309BB2013B9BB2A4F86230B4F8BF
:1054000062309BB2002B00F095802268536913F044
:10541000020F15D0B4F862309BB2012BE1D9E36BD7
:10542000002BDED0E36D1B681362E36D0433E3658C
:10543000B4F862309BB2023B9BB2A4F86230DEE764
:10544000FDF774F8C01BA84202D3B5F1FF3F01D1AC
:10545000002DD4D12046FFF7E7FD002384F88030EB
:10546000D4F8843043F48073C4F88430012384F882
:10547000813003266EE7B4F862309BB2012B10D95D
:10548000E36B73B1E36D1B88A8F82030E36D023342
:10549000E365B4F862309BB2023B9BB2A4F8623081
:1054A0000DE0E36D1B7882F82030E36D0133E36596
:1054B000B4F862309BB2013B9BB2A4F86230B4F8FE
:1054C00062309BB2002B35D02268536913F0020F73
:1054D00015D0B4F862309BB2032BCCD9E36B402BD0
:1054E000C9D9E36D1B681362E36D0433E365B4F857
:1054F00062309BB2043B9BB2A4F86230DFE7FDF759
:1055000015F8C01BA84202D3B5F1FF3F01D1002D11
:10551000D5D12046FFF788FD002384F88030D4F8E9
:10552000843043F48073C4F88430012384F88130DC
:1055300003260FE700953B46002208212046FFF78F
:10554000E1FD28B1D4F8843043F02003C4F884305E
:105550002046FFF769FD002384F88030012384F89A
:105560008130D4F88430002B7FF4F4AE0026F1E6CD
:105570000226EFE60000FFFF10B4036A046A24F07D
:1055800001040462846924F0F00C4CEA021223F056
:105590000A030B438261036210BC704710B4046AB3
:1055A00024F0100404628469036A24F4704C4CEA09
:1055B000023223F0A00343EA01138261036210BCAC
:1055C000704700008268034B13400B4343F007030E
:1055D000836070478FFFCFFF90F83D30DBB2012B27
:1055E0003AD1022380F83D300268D36843F00103CA
:1055F000D36003681A4AB3F1804F18BF93421DD09D
:10560000A2F57C42934219D002F58062934215D0F4
:1056100002F58062934211D002F5784293420DD098
:10562000A2F56C42934209D002F59432934205D020
:105630001A6842F001021A60002070479968094A0E
:105640000A40062A18BFB2F5803F07D01A6842F018
:1056500001021A6000207047012070470020704747
:105660000000014007000100704770477047704715
:1056700010B5044603681A6912F0020F11D0DA68F7
:1056800012F0020F0DD06FF002021A6101230377AE
:1056900003689B6913F0030F79D0FFF7E6FF00233F
:1056A000237723681A6912F0040F12D0DA6812F017
:1056B000040F0ED06FF004021A61022323772368CF
:1056C0009B6913F4407F68D02046FFF7CEFF00238C
:1056D000237723681A6912F0080F12D0DA6812F0E3
:1056E000080F0ED06FF008021A6104232377236895
:1056F000DB6913F0030F57D02046FFF7B6FF0023F6
:10570000237723681A6912F0100F12D0DA6812F0AA
:10571000100F0ED06FF010021A6108232377236850
:10572000DB6913F4407F46D02046FFF79EFF00233D
:10573000237723681A6912F0010F03D0DA6812F098
:10574000010F3FD123681A6912F0800F03D0DA6885
:1057500012F0800F3DD123681A6912F4807F03D0C4
:10576000DA6812F0800F3BD123681A6912F0400FFB
:1057700003D0DA6812F0400F39D123681A6912F0A9
:10578000200F03D0DA6812F0200F37D110BDFFF7D9
:105790006BFF2046FFF76AFF81E72046FFF764FFB3
:1057A0002046FFF763FF92E72046FFF75DFF2046A4
:1057B000FFF75CFFA3E72046FFF756FF2046FFF701
:1057C00055FFB4E76FF001021A612046FCF7E6FAD4
:1057D000B8E76FF080021A61204600F0C2F9BAE71C
:1057E0006FF480721A61204600F0BCF9BCE76FF0DC
:1057F00040021A612046FFF73AFFBEE76FF0200231
:105800001A61204600F0ACF9C0E7000030B503682B
:10581000394A904214BF4FF0000E4FF0010EB0F124
:10582000804F14BF72464EF00102AAB9334CA04219
:1058300014BF00240124324DA8420DD064B904F1F4
:10584000804404F58234A04214BF0024012405F5ED
:105850000065A84200D01CB123F070034C682343BC
:1058600012BB264A904214BF00220122244CA042BF
:105870001AD0CAB902F1804202F58232904214BFB6
:105880000022012204F50064A0420DD062B91D4A35
:10589000904214BF0022012204F59A34A04203D0A2
:1058A00012B9194A904204D123F4407CCB6843EAF0
:1058B0000C0323F080034A69134303608A68C262C1
:1058C0000A688262114A904214BF73464EF0010387
:1058D00063B90C4B984214BF0023012302F57052A8
:1058E000904203D013B9084B984201D10B6903636E
:1058F0000123436130BD00BF0000014000080040AB
:105900000004004000440140004801400004014000
:1059100060B310B5044690F83D3013B3022384F809
:105920003D30214651F8040BFFF770FF012384F846
:10593000483084F83E3084F83F3084F8403084F8B2
:10594000413084F8423084F8433084F8443084F89D
:10595000453084F8463084F8473084F83D300020E4
:1059600010BD80F83C30FCF733FDD7E701207047CD
:1059700010B4846824F47F4C42EA03220A4342EACA
:105980000C02826010BC704790F83C30012B00F094
:105990008F8010B50446012380F83C30022380F844
:1059A0003D3002689068434B034093600B68702B56
:1059B00055D031D8502B6CD00CD9602B2AD1CA6865
:1059C00049682068FFF7EAFD60212068FFF7FAFDCB
:1059D000002035E0402B0AD1CA6849682068FFF7EB
:1059E000CBFD40212068FFF7EDFD002028E05BD8CB
:1059F000202B07D003D9302B04D0012020E00BB19D
:105A0000102B05D119462068FFF7DCFD002017E0B8
:105A1000012015E0012013E0B3F5005F2CD00BD975
:105A2000254A9342EED012D9244A9342EAD010324A
:105A30009342E7D0012003E0B3F5805F36D1002028
:105A4000012384F83D30002384F83C3010BDB3F5C9
:105A5000801FD7D0B3F1101FD4D00120F0E7CB685E
:105A60004A6889682068FFF783FF2268936843F0DB
:105A7000770393600020E3E7CB684A688968206871
:105A8000FFF776FF2268936843F480439360002019
:105A9000D6E7CA6849682068FFF76EFD5021206884
:105AA000FFF790FD0020CBE70120C9E70120C7E701
:105AB000022070478800CEFF200010003000100048
:105AC00090F83C30012B45D070B4012380F83C3075
:105AD000022380F83D3003685A689C681E4E1F4DB3
